{
  "contractName": "FixityStorage",
  "abi": [
    {
      "inputs": [],
      "payable": false,
      "stateMutability": "nonpayable",
      "type": "constructor"
    },
    {
      "constant": true,
      "inputs": [
        {
          "internalType": "uint32",
          "name": "poolId",
          "type": "uint32"
        }
      ],
      "name": "getPoolHash",
      "outputs": [
        {
          "internalType": "bytes32",
          "name": "",
          "type": "bytes32"
        }
      ],
      "payable": false,
      "stateMutability": "view",
      "type": "function"
    },
    {
      "constant": false,
      "inputs": [
        {
          "internalType": "uint32",
          "name": "poolId",
          "type": "uint32"
        },
        {
          "internalType": "bytes32",
          "name": "poolHash",
          "type": "bytes32"
        }
      ],
      "name": "setPoolHash",
      "outputs": [],
      "payable": false,
      "stateMutability": "nonpayable",
      "type": "function"
    }
  ],
  "bytecode": "0x608060405234801561001057600080fd5b5033600160006101000a81548173ffffffffffffffffffffffffffffffffffffffff021916908373ffffffffffffffffffffffffffffffffffffffff16021790555061019f806100616000396000f3fe608060405234801561001057600080fd5b50600436106100365760003560e01c8063178d29291461003b57806331bc18ac14610079575b600080fd5b6100776004803603604081101561005157600080fd5b81019080803563ffffffff169060200190929190803590602001909291905050506100c1565b005b6100ab6004803603602081101561008f57600080fd5b81019080803563ffffffff169060200190929190505050610142565b6040518082815260200191505060405180910390f35b600160009054906101000a900473ffffffffffffffffffffffffffffffffffffffff1673ffffffffffffffffffffffffffffffffffffffff163373ffffffffffffffffffffffffffffffffffffffff161461011b57600080fd5b806000808463ffffffff1663ffffffff168152602001908152602001600020819055505050565b60008060008363ffffffff1663ffffffff16815260200190815260200160002054905091905056fea265627a7a72315820b8938368b6258ad501a361feb9296f4e3ffaa4bde45c4c90026f3ccc4f7cef4464736f6c63430005100032",
  "source": "// SPDX-License-Identifier: MIT\npragma solidity >=0.4.22 <0.9.0;\n\n// TODO user authorisation \ncontract FixityStorage {\n  \n  mapping(uint32=>bytes32) pools;\n  address creator;\n\n  constructor()public{\n    creator = msg.sender;\n  }\n\n  function getPoolHash(uint32 poolId) public view returns(bytes32) {\n      return pools[poolId];\n  }\n\n  function setPoolHash(uint32 poolId, bytes32 poolHash) public {\n    require(msg.sender==creator);\n    pools[poolId]=poolHash;\n  }\n}\n",
  "sourcePath": "C:\\Users\\User\\Uni\\Masterarbeit\\src\\sol\\contracts\\FixityStorage.sol",
  "compiler": {
    "name": "solc",
    "version": "0.5.16+commit.9c3226ce.Emscripten.clang"
  },
  "schemaVersion": "3.4.5",
  "updatedAt": "2022-03-19T15:27:02.544Z",
  "devdoc": {
    "methods": {}
  },
  "userdoc": {
    "methods": {}
  }
}