{
  "contractName": "FixityStorage",
  "abi": [
    {
      "inputs": [],
      "payable": false,
      "stateMutability": "nonpayable",
      "type": "constructor"
    },
    {
      "constant": true,
      "inputs": [
        {
          "internalType": "uint32",
          "name": "poolId",
          "type": "uint32"
        }
      ],
      "name": "getPoolHash",
      "outputs": [
        {
          "internalType": "bytes32",
          "name": "",
          "type": "bytes32"
        }
      ],
      "payable": false,
      "stateMutability": "view",
      "type": "function"
    },
    {
      "constant": false,
      "inputs": [
        {
          "internalType": "uint32",
          "name": "poolId",
          "type": "uint32"
        },
        {
          "internalType": "bytes32",
          "name": "poolHash",
          "type": "bytes32"
        }
      ],
      "name": "setPoolHash",
      "outputs": [],
      "payable": false,
      "stateMutability": "nonpayable",
      "type": "function"
    }
  ],
  "bytecode": "0x608060405234801561001057600080fd5b50610145806100206000396000f3fe608060405234801561001057600080fd5b50600436106100365760003560e01c8063178d29291461003b57806331bc18ac14610079575b600080fd5b6100776004803603604081101561005157600080fd5b81019080803563ffffffff169060200190929190803590602001909291905050506100c1565b005b6100ab6004803603602081101561008f57600080fd5b81019080803563ffffffff1690602001909291905050506100e8565b6040518082815260200191505060405180910390f35b806000808463ffffffff1663ffffffff168152602001908152602001600020819055505050565b60008060008363ffffffff1663ffffffff16815260200190815260200160002054905091905056fea265627a7a72315820eda99826211a5a4eaf2a5076913fd9bc910a71bcf6c99c552ef808ecf58e465864736f6c63430005100032",
  "source": "// SPDX-License-Identifier: MIT\npragma solidity >=0.4.22 <0.9.0;\n\ncontract FixityStorage {\n  \n  mapping(uint32=>bytes32) pools;\n\n  constructor()public{\n  }\n\n  function getPoolHash(uint32 poolId) public view returns(bytes32) {\n      return pools[poolId];\n  }\n\n  function setPoolHash(uint32 poolId, bytes32 poolHash) public {\n    pools[poolId]=poolHash;\n  }\n}\n",
  "sourcePath": "C:\\Users\\User\\Uni\\Masterarbeit\\src\\sol\\contracts\\FixityStorage.sol",
  "compiler": {
    "name": "solc",
    "version": "0.5.16+commit.9c3226ce.Emscripten.clang"
  },
  "schemaVersion": "3.4.2",
  "updatedAt": "2022-02-11T10:40:38.740Z",
  "networkType": "ethereum",
  "devdoc": {
    "methods": {}
  },
  "userdoc": {
    "methods": {}
  }
}